:020000000129D4
:10000600103083120313FD00FD0B072800000800C3
:10001600083083120313FC002330FD00FD0B11286A
:06002600FC0B112808008C
:04002C0000000800C8
:1000300083120313D11B1E2887111F288715511BFC
:100040002328071124280715D11A282887102928C2
:100050008714511A2D2807102E2807144918322802
:10006000071633280712871616208712D1193A2847
:1000700087113B28871551193F280711402807157C
:10008000D11844288710452887145118492807108B
:100090004A28071449184E2807164F2807128716B2
:1000A00016208712491C56280B20572803200800C9
:0E00B000831203134B088A004A0882000800DE
:1000BE008312031349105008D10018204914080068
:1000CE008316031387120712071087100711871163
:1000DE0083128712071287110711871007100B2042
:1000EE000B200B20871407148716162087120B205F
:1000FE008716162087120B208716162087120B20C4
:10010E0007108716162087120B20871616208712C7
:10011E00871087158716162087120B208711071454
:10012E0087161620871207108716162087120B20A7
:10013E0087161620871207148716162087120B2093
:10014E0007108716162087128715071587140714B0
:0C015E008716162087120B204914080099
:10016A00C728803083120313CC00DA28C030CC00B1
:10017A00DA289430CC00DA28D430CC00DA2880305F
:10018A00CC00DA28831203134C08013A0319B62863
:10019A004C08023A0319BB284C08033A0319BE2833
:1001AA004C08043A0319C128C4284D03F0004C082E
:1001BA00F0077008CC007008D10018204910CF0150
:1001CA004F084E07840000080319F3284F084E070A
:1001DA0084000008D0005F20CF0AE52849140800EF
:1001EA0058208A110A128000840ACA0A0319CB0A03
:0801FA00F003031DF5280800C5
:10020200BE2183120313081085140614861788145E
:1002120008158612061367200C30D1001820013011
:10022200CC000430CD003F30CE00B5200230CC00EF
:100232000630CD00A030CE00B5200830FB009D3046
:10024200FC000530FD00FD0B2429FC0B2429FB0BCF
:100252002429000000000130D10018200830FB00E2
:100262009D30FC000530FD00FD0B3529FC0B3529C6
:10027200FB0B3529000000000C30D10018200230A1
:10028200CC000630CD002030CE00B5200830FB0077
:100292009D30FC000530FD00FD0B4D29FC0B4D2966
:1002A200FB0B4D29000000000130D1001820081579
:0602B20088100D295B29F4
:10037C00203084001F3083120313F0009430CA0025
:10038C000130CB00F520A030840033308312F00014
:10039C006130CA000130CB00F5203F3084000A30B8
:1003AC008312F000B330CA000130CB00F5200800F6
:1002C20053347934743465346D3465342034643491
:1002D200753420347334653463347534723469345C
:1002E20074346534203466346534753420346534AE
:1002F20074342034673461347A34203464346134A1
:100302006E347334203475346E3420346C3461347A
:1003120062346F347234613474346F3469347234D9
:06032200653420340034B4
:100328006634653475342034653474342034673465
:1003380061347A342034643461346E347334203454
:1003480075346E3420346C34613462346F347234F2
:0E035800613474346F346934723465340034A7
:100366004234693465346E34763465346E347534AB
:0403760065340034B6
:02400E007A3BFB
:00000001FF
