:020000000129D4
:10000600103083120313FD00FD0B072800000800C3
:10001600083083120313FC002330FD00FD0B11286A
:06002600FC0B112808008C
:04002C0000000800C8
:1000300083120313E51B1E2887111F288715651BD4
:100040002328071124280715E51A282887102928AE
:100050008714651A2D2807102E2807145D183228DA
:10006000071633280712871616208712E5193A2833
:1000700087113B28871565193F2807114028071568
:10008000E518442887104528871465184928071063
:100090004A2807145D184E2807164F28071287169E
:1000A000162087125D1C56280B20572803200800B5
:0E00B000831203135F088A005E0882000800B6
:1000BE00831203135D106408E50018205D14080018
:1000CE008316031387120712071087100711871163
:1000DE0083128712071287110711871007100B2042
:1000EE000B200B20871407148716162087120B205F
:1000FE008716162087120B208716162087120B20C4
:10010E0007108716162087120B20871616208712C7
:10011E00871087158716162087120B208711071454
:10012E0087161620871207108716162087120B20A7
:10013E0087161620871207148716162087120B2093
:10014E0007108716162087128715071587140714B0
:0C015E008716162087120B205D14080085
:10016A00C728803083120313E000DA28C030E00089
:10017A00DA289430E000DA28D430E000DA28803037
:10018A00E000DA28831203136008013A0319B6283B
:10019A006008023A0319BB286008033A0319BE280B
:1001AA006008043A0319C128C4286103F0006008F2
:1001BA00F0077008E0007008E50018205D10E30100
:1001CA0063086207840000080319F32863086207BA
:1001DA0084000008E4005F20E30AE5285D140800B3
:1001EA0058208A110A128000840ADE0A0319DF0ADB
:0801FA00F003031DF5280800C5
:10020200822183120313081085140614861788149A
:1002120008158612061367200C30E50018200130FD
:10022200E0000430E1005330E200B5200230E0008B
:100232000630E1002030E200B5200830FB009D309E
:10024200FC000530FD00FD0B2429FC0B2429FB0BCF
:100252002429000000000130E50018200830FB00CE
:100262009D30FC000530FD00FD0B3529FC0B3529C6
:0C027200FB0B3529000000000D293E297F
:10030400203084003D3083120313F0004430DE00BB
:080314000130DF00F5200800B4
:1002880053347934743465346D34653420346434CB
:100298007534203473346534633475347234693496
:1002A80074346534203466346534753420346534E8
:1002B80074342034673461347A34203464346134DB
:1002C8006E347334203475346E3420346C346134B5
:1002D80062346F347234613474346F346934723414
:0602E800653420340034EF
:1002EE004234693465346E34763465346E34753424
:0402FE00653400342F
:02400E007A3BFB
:00000001FF
